:1000000057C09EC070C06FC06EC06DC06CC06BC06A
:100010006AC069C068C067C066C065C064C063C0AC
:1000200062C005010906A101050719E029E71500CD
:10003000250175019508810295017508256519004E
:1000400029658100C009022200010100801909040C
:10005000000001030000000921010100012223002A
:100060000705810308000A12011001000000084280
:100070004231E1000101020001200350004F00491C
:10008000004D0041004B0033005900200369006E11
:10009000007400720069006E00670075006C0069F2
:1000A0000073002E006F0072006700040309040053
:1000B00011241FBECFE5D1E0DEBFCDBF10E0A0E62A
:1000C000B0E0E2E3F9E002C005900D92AC36B10772
:1000D000D9F720E0ACE6B0E001C01D92AD3DB2071B
:1000E000E1F7DBD224C48CCFA82FB92F80E090E0B9
:1000F00041E050EA609530E009C02D918227979544
:10010000879510F084279527305EC8F36F5FA8F3BA
:100110000895EADF8D939D930895A6E08827992797
:10012000AA9569F00197E1F3C899FCCFC89BFECF6F
:1001300081E09927A9B3019611F0A178D9F7089524
:10014000CF93CFB7CF93DF93C395C89BE9F7C89BF5
:100150000BC0C89B09C0C89B07C0C89B05C0C89BF3
:1001600003C0C89B01C08BC06F93C091C000DD2746
:10017000C953DF4F2F9365E5C89B03C02F916F9143
:10018000E6CF0F931F934F9320E040E15F9309B3B5
:10019000017800FB27F93F9350E03BE039C011782C
:1001A00040642F77012F5F5F1EC0406819B311783C
:1001B0002F7752501FC0406409B32F770178D1F1D7
:1001C0005F5F00C023C0406219B32F77117891F1AF
:1001D0005F5F00C025C001781027515012F45D5FA9
:1001E0000000115027952C3F19B3C8F6117801274C
:1001F000015027952C3FC8F64227499309B301784F
:1002000010274F73115027952C3FA8F64695469519
:1002100019B3117879F00127015027952C3F98F6F2
:100220006B5A60F3315009B3B0F600C010E41ABF46
:10023000002719C03B503195C31BD04010E41ABFB2
:100240000881033C09F10B34F9F02091BE001981BB
:10025000110F1213EDCF4A81441F093651F10D32AF
:1002600011F0013E29F70093C5003F915F914F9136
:100270001F910F912F916F91CAB7C6FD65CFDF9186
:10028000CF91CFBFCF9118952091C500222369F35C
:100290001091C300112391F5343092F13093C300D3
:1002A0002093BF001091C0003BE0311B3093C00091
:1002B00027C00091C30001300CF50AE54F7049F4E6
:1002C0003091640034FD1DC000936400C7EAD0E0A3
:1002D0001CC03091B20034FD14C00093B200C3EBD7
:1002E000D0E013C0052710E000C000000BBB1AC00F
:1002F000052710E0221F1DC010E021C04AE502C002
:1003000032ED432FC4E1D0E032E01AB31168D89A3D
:100310000BB31ABB51E820E865E320FF05270BBBB0
:10032000279517951C3FF0F66695B8F7B1F720FFB3
:1003300005270BBB279517951C3FD0F627951795DA
:1003400017FF052700001C3F0BBBB0F629913A951B
:1003500019F70E771091C400110FC651D0400BBB96
:1003600011F01093BE0010E41ABF01601AB31E779B
:10037000402F4E7754E05A95F1F70BBB1ABB4BBB9D
:1003800074CFCF93DF938CE190E090937D008093C6
:100390007C0088E190E09093790080937800A0E65B
:1003A000B0E0E0E8F0E0C5E6D0E083E690E021E0F0
:1003B0003D913083399131831282138214821582E8
:1003C00016821782108611861286138624873D9620
:1003D0008A179B0769F7DF91CF9108951BBAD1DF88
:1003E00088D2D09A80917B00815011F0A895FCCFE3
:1003F00010927B00D0989EE088E10FB6F894A89503
:1004000081BD0FBE91BD789410927400109273005C
:1004100062E083E790E04AC199B3892321E030E0AC
:1004200011F020E030E0C901089582B760E070E08B
:1004300070917600680F711D660F771F660F771F2A
:10044000072E000C880B990B0895019739F0880F3F
:10045000991F880F991F02970197F1F70895E5DF1B
:1004600020916C0030916D00621B730B70936F00D4
:1004700060936E006C3E85E078072CF48CEE95E07E
:10048000861B970BE2DFD1DF70936D0060936C00E9
:100490000895CF92DF92EF92FF920F931F93CF9325
:1004A00080E8E82E80E0F82E00E010E0CC24C39431
:1004B000D12C20917100C8016DE070E027D28058E6
:1004C0009F4FFC01E20FF11DC2818C2F90E0009044
:1004D000700002C0959587950A94E2F78170F70144
:1004E0008087808199DF90917000811108C096010A
:1004F00002C0220F331F9A95E2F7C22B09C0F60102
:1005000002C0EE0FFF1F9A95E2F7CF018095C82336
:1005100020917100C8016DE070E0F8D180589F4FC4
:10052000FC01E20FF11DC2830F5F1F4FFDE0EF0ED4
:10053000F11C0330110509F0BCCFCF911F910F9131
:10054000FF90EF90DF90CF900895A091710021E08F
:1005500030E00090700002C0220F331F0A94E2F7CF
:10056000B0E0A058BF4FE0E8F0E012968C911297EF
:1005700090E082239323892B19F081858F5F8187F7
:100580008085882319F08185815081871D963D964D
:1005900080E0E73AF80749F70895809170008F5F8F
:1005A000883019F080937000089510927000809147
:1005B00071008F5F863019F080937100089510925A
:1005C000710008951F93CF93DF93C0E8D0E011E04E
:1005D0009A858985992389F090E02091780030915F
:1005E00079008217930754F58091B20084FD26C0EC
:1005F0001A868C85882311F119C090E020917C0027
:1006000030917D0028173907CCF48091B20084FD29
:1006100015C01A878C85882389F089811092730010
:100620008093740062E083E790E040D01092730002
:100630001092740062E083E790E038D02D9680E05D
:10064000C73AD80729F6DF91CF911F910895FC0191
:1006500083E790E09093C2008093C1008081807610
:100660008032C9F48181813039F4ACDF109273009B
:100670008093740082E00895823041F482E790E034
:100680009093C2008093C10081E008958A3019F4EC
:1006900083818093720080E00895A0DEA89528D021
:1006A000F8DE53DF7ADF8EDFDADEF8CFCF93C62FA6
:1006B0002091B20024FF0BC03091B30028E823271B
:1006C0002093B300FC01A4EBB0E08C2F04C02AE51A
:1006D0002093B200F7CF91919D938150E1F76C2F59
:1006E00084EB90E016DDCC5FC093B200CF9108950B
:1006F000CF93DF938091C300835087FDA3C0909177
:10070000BF009D3209F09CC0883009F099C08091EB
:10071000C000CCE0D0E0C81BD109C953DF4F83EC47
:100720008093A7008AE58093640010927500888109
:10073000807619F0CE018BDF7AC09A811092B000DA
:100740008981811106C01092B10020EB30E082E077
:100750006AC0853019F49093C40062C0863009F0F5
:1007600049C08B81813019F487E690E024C0823043
:1007700041F485E490E09093C2008093C10082E24E
:1007800035C08330F1F4911108C08BEA90E090936A
:10079000C2008093C10084E029C0913041F48BE80D
:1007A00090E09093C2008093C10080E21FC092301D
:1007B000E1F489E790E09093C2008093C10082E168
:1007C00015C0813241F487E590E09093C200809398
:1007D000C10089E00BC0823241F482E290E0909344
:1007E000C2008093C10083E201C080E090E4909356
:1007F00075001DC0883069F0893019F49093C600E7
:100800000FC08A3049F08B3059F48BE48093B300E9
:1008100007C026EC30E002C020EB30E081E003C0EE
:1008200020EB30E080E03093C2002093C1009F8134
:10083000911104C09E81981708F4892F809363005A
:100840001092C3008091640084FF46C080916300D1
:100850008F3F09F441C0C82F893008F0C8E08C1BD5
:10086000809363009091A70088E889278093A70070
:10087000CC2331F14091C1005091C20080917500AC
:1008800086FF0AC0A8EAB0E0FA019C2F84918D93FC
:1008900031969150D9F708C0DA01E8EAF0E09C2FD0
:1008A0008D9181939150E1F72FEF2C0F30E02F5F66
:1008B0003F4FCA01820F931F9093C2008093C100E3
:1008C0006C2F88EA90E025DCCC5FCC3019F08FEFFC
:1008D00080936300C093640084E199B3917831F40C
:1008E0008150D9F71092C4001092BE00DF91CF91D1
:1008F000089585B7836085BF8BB780648BBFE2EBBB
:10090000F0E08BE481838AE58083089500245527F5
:1009100004C0080E591F880F991F009729F076957B
:100920006795B8F37105B9F7802D952F0895F89460
:02093000FFCFF7
:0C093200020408FF5A4F5051522C2800BC
:00000001FF
